{
  "contractName": "Dex",
  "abi": [
    {
      "anonymous": false,
      "inputs": [
        {
          "indexed": true,
          "internalType": "address",
          "name": "previousOwner",
          "type": "address"
        },
        {
          "indexed": true,
          "internalType": "address",
          "name": "newOwner",
          "type": "address"
        }
      ],
      "name": "OwnershipTransferred",
      "type": "event"
    },
    {
      "inputs": [
        {
          "internalType": "bytes32",
          "name": "ticker",
          "type": "bytes32"
        },
        {
          "internalType": "address",
          "name": "tokenAddress",
          "type": "address"
        }
      ],
      "name": "addToken",
      "outputs": [],
      "stateMutability": "nonpayable",
      "type": "function"
    },
    {
      "inputs": [
        {
          "internalType": "address",
          "name": "",
          "type": "address"
        },
        {
          "internalType": "bytes32",
          "name": "",
          "type": "bytes32"
        }
      ],
      "name": "balances",
      "outputs": [
        {
          "internalType": "uint256",
          "name": "",
          "type": "uint256"
        }
      ],
      "stateMutability": "view",
      "type": "function"
    },
    {
      "inputs": [
        {
          "internalType": "uint256",
          "name": "amount",
          "type": "uint256"
        },
        {
          "internalType": "bytes32",
          "name": "ticker",
          "type": "bytes32"
        }
      ],
      "name": "deposit",
      "outputs": [],
      "stateMutability": "nonpayable",
      "type": "function"
    },
    {
      "inputs": [],
      "name": "depositEth",
      "outputs": [],
      "stateMutability": "payable",
      "type": "function"
    },
    {
      "inputs": [],
      "name": "nextOrderId",
      "outputs": [
        {
          "internalType": "uint256",
          "name": "",
          "type": "uint256"
        }
      ],
      "stateMutability": "view",
      "type": "function"
    },
    {
      "inputs": [
        {
          "internalType": "bytes32",
          "name": "",
          "type": "bytes32"
        },
        {
          "internalType": "uint256",
          "name": "",
          "type": "uint256"
        },
        {
          "internalType": "uint256",
          "name": "",
          "type": "uint256"
        }
      ],
      "name": "orderBook",
      "outputs": [
        {
          "internalType": "uint256",
          "name": "id",
          "type": "uint256"
        },
        {
          "internalType": "address",
          "name": "trader",
          "type": "address"
        },
        {
          "internalType": "enum Dex.Side",
          "name": "side",
          "type": "uint8"
        },
        {
          "internalType": "bytes32",
          "name": "ticker",
          "type": "bytes32"
        },
        {
          "internalType": "uint256",
          "name": "amount",
          "type": "uint256"
        },
        {
          "internalType": "uint256",
          "name": "price",
          "type": "uint256"
        },
        {
          "internalType": "uint256",
          "name": "filled",
          "type": "uint256"
        }
      ],
      "stateMutability": "view",
      "type": "function"
    },
    {
      "inputs": [],
      "name": "owner",
      "outputs": [
        {
          "internalType": "address",
          "name": "",
          "type": "address"
        }
      ],
      "stateMutability": "view",
      "type": "function"
    },
    {
      "inputs": [],
      "name": "renounceOwnership",
      "outputs": [],
      "stateMutability": "nonpayable",
      "type": "function"
    },
    {
      "inputs": [
        {
          "internalType": "uint256",
          "name": "",
          "type": "uint256"
        }
      ],
      "name": "tokenList",
      "outputs": [
        {
          "internalType": "bytes32",
          "name": "",
          "type": "bytes32"
        }
      ],
      "stateMutability": "view",
      "type": "function"
    },
    {
      "inputs": [
        {
          "internalType": "bytes32",
          "name": "",
          "type": "bytes32"
        }
      ],
      "name": "tokenMapping",
      "outputs": [
        {
          "internalType": "bytes32",
          "name": "ticker",
          "type": "bytes32"
        },
        {
          "internalType": "address",
          "name": "tokenAddress",
          "type": "address"
        }
      ],
      "stateMutability": "view",
      "type": "function"
    },
    {
      "inputs": [
        {
          "internalType": "address",
          "name": "newOwner",
          "type": "address"
        }
      ],
      "name": "transferOwnership",
      "outputs": [],
      "stateMutability": "nonpayable",
      "type": "function"
    },
    {
      "inputs": [
        {
          "internalType": "uint256",
          "name": "amount",
          "type": "uint256"
        },
        {
          "internalType": "bytes32",
          "name": "ticker",
          "type": "bytes32"
        }
      ],
      "name": "withdraw",
      "outputs": [],
      "stateMutability": "nonpayable",
      "type": "function"
    },
    {
      "inputs": [
        {
          "internalType": "bytes32",
          "name": "ticker",
          "type": "bytes32"
        },
        {
          "internalType": "enum Dex.Side",
          "name": "side",
          "type": "uint8"
        }
      ],
      "name": "getOrderBook",
      "outputs": [
        {
          "components": [
            {
              "internalType": "uint256",
              "name": "id",
              "type": "uint256"
            },
            {
              "internalType": "address",
              "name": "trader",
              "type": "address"
            },
            {
              "internalType": "enum Dex.Side",
              "name": "side",
              "type": "uint8"
            },
            {
              "internalType": "bytes32",
              "name": "ticker",
              "type": "bytes32"
            },
            {
              "internalType": "uint256",
              "name": "amount",
              "type": "uint256"
            },
            {
              "internalType": "uint256",
              "name": "price",
              "type": "uint256"
            },
            {
              "internalType": "uint256",
              "name": "filled",
              "type": "uint256"
            }
          ],
          "internalType": "struct Dex.Order[]",
          "name": "",
          "type": "tuple[]"
        }
      ],
      "stateMutability": "view",
      "type": "function"
    },
    {
      "inputs": [
        {
          "internalType": "enum Dex.Side",
          "name": "side",
          "type": "uint8"
        },
        {
          "internalType": "bytes32",
          "name": "ticker",
          "type": "bytes32"
        },
        {
          "internalType": "uint256",
          "name": "amount",
          "type": "uint256"
        },
        {
          "internalType": "uint256",
          "name": "price",
          "type": "uint256"
        }
      ],
      "name": "createLimitOrder",
      "outputs": [],
      "stateMutability": "nonpayable",
      "type": "function"
    },
    {
      "inputs": [
        {
          "internalType": "enum Dex.Side",
          "name": "side",
          "type": "uint8"
        },
        {
          "internalType": "bytes32",
          "name": "ticker",
          "type": "bytes32"
        },
        {
          "internalType": "uint256",
          "name": "amount",
          "type": "uint256"
        }
      ],
      "name": "createMarketOrder",
      "outputs": [],
      "stateMutability": "nonpayable",
      "type": "function"
    }
  ],
  "bytecode": "0x608060405260006004553480156200001657600080fd5b50620000376200002b6200003d60201b60201c565b6200004560201b60201c565b62000109565b600033905090565b60008060009054906101000a900473ffffffffffffffffffffffffffffffffffffffff169050816000806101000a81548173ffffffffffffffffffffffffffffffffffffffff021916908373ffffffffffffffffffffffffffffffffffffffff1602179055508173ffffffffffffffffffffffffffffffffffffffff168173ffffffffffffffffffffffffffffffffffffffff167f8be0079c531659141344cd1fd0a4f28419497f9722a3daafe3b4186f6b6457e060405160405180910390a35050565b61346b80620001196000396000f3fe6080604052600436106100e85760003560e01c80638da5cb5b1161008a578063a8d2021a11610059578063a8d2021a146102da578063ba58ea6814610303578063c9630cb014610340578063f2fde38b14610369576100e8565b80638da5cb5b146102205780639776aacf1461024b57806399ec2f1c146102745780639ead72221461029d576100e8565b8063439370b1116100c6578063439370b114610198578063667cb4ba146101a25780636f3b62f9146101e0578063715018a614610209576100e8565b80630bb431b6146100ed5780631f14df69146101305780632a58b3301461016d575b600080fd5b3480156100f957600080fd5b50610114600480360381019061010f91906128fc565b610392565b6040516101279796959493929190612a25565b60405180910390f35b34801561013c57600080fd5b5061015760048036038101906101529190612ac0565b61042b565b6040516101649190612b00565b60405180910390f35b34801561017957600080fd5b50610182610450565b60405161018f9190612b00565b60405180910390f35b6101a0610456565b005b3480156101ae57600080fd5b506101c960048036038101906101c49190612b1b565b61054f565b6040516101d7929190612b48565b60405180910390f35b3480156101ec57600080fd5b5061020760048036038101906102029190612b96565b610593565b005b34801561021557600080fd5b5061021e610fc5565b005b34801561022c57600080fd5b50610235610fd9565b6040516102429190612bfd565b60405180910390f35b34801561025757600080fd5b50610272600480360381019061026d9190612c18565b611002565b005b34801561028057600080fd5b5061029b60048036038101906102969190612c58565b6110c9565b005b3480156102a957600080fd5b506102c460048036038101906102bf9190612cab565b611f5e565b6040516102d19190612cd8565b60405180910390f35b3480156102e657600080fd5b5061030160048036038101906102fc9190612cf3565b611f82565b005b34801561030f57600080fd5b5061032a60048036038101906103259190612d33565b61229b565b6040516103379190612eec565b60405180910390f35b34801561034c57600080fd5b5061036760048036038101906103629190612cf3565b6123f4565b005b34801561037557600080fd5b50610390600480360381019061038b9190612f0e565b61267c565b005b600560205282600052604060002060205281600052604060002081815481106103ba57600080fd5b906000526020600020906006020160009250925050508060000154908060010160009054906101000a900473ffffffffffffffffffffffffffffffffffffffff16908060010160149054906101000a900460ff16908060020154908060030154908060040154908060050154905087565b6003602052816000526040600020602052806000526040600020600091509150505481565b60045481565b6104d934600360003373ffffffffffffffffffffffffffffffffffffffff1673ffffffffffffffffffffffffffffffffffffffff16815260200190815260200160002060007f45544800000000000000000000000000000000000000000000000000000000008152602001908152602001600020546126ff90919063ffffffff16565b600360003373ffffffffffffffffffffffffffffffffffffffff1673ffffffffffffffffffffffffffffffffffffffff16815260200190815260200160002060007f4554480000000000000000000000000000000000000000000000000000000000815260200190815260200160002081905550565b60016020528060005260406000206000915090508060000154908060010160009054906101000a900473ffffffffffffffffffffffffffffffffffffffff16905082565b600060018111156105a7576105a661299f565b5b8460018111156105ba576105b961299f565b5b0361064f576105d2818361271590919063ffffffff16565b600360003373ffffffffffffffffffffffffffffffffffffffff1673ffffffffffffffffffffffffffffffffffffffff16815260200190815260200160002060007f4554480000000000000000000000000000000000000000000000000000000000815260200190815260200160002054101561064e57600080fd5b5b6001808111156106625761066161299f565b5b8460018111156106755761067461299f565b5b036106d85781600360003373ffffffffffffffffffffffffffffffffffffffff1673ffffffffffffffffffffffffffffffffffffffff16815260200190815260200160002060008581526020019081526020016000205410156106d757600080fd5b5b60006005600085815260200190815260200160002060008660018111156107025761070161299f565b5b81526020019081526020016000209050806040518060e0016040528060045481526020013373ffffffffffffffffffffffffffffffffffffffff1681526020018760018111156107555761075461299f565b5b8152602001868152602001858152602001848152602001600081525090806001815401808255809150506001900390600052602060002090600602016000909190919091506000820151816000015560208201518160010160006101000a81548173ffffffffffffffffffffffffffffffffffffffff021916908373ffffffffffffffffffffffffffffffffffffffff16021790555060408201518160010160146101000a81548160ff021916908360018111156108165761081561299f565b5b0217905550606082015181600201556080820151816003015560a0820151816004015560c08201518160050155505060008082805490501161085957600061086b565b6001828054905061086a9190612f6a565b5b9050600060018111156108815761088061299f565b5b8660018111156108945761089361299f565b5b03610c0b575b6000811115610c06578181815481106108b6576108b5612f9e565b5b906000526020600020906006020160040154826001836108d69190612f6a565b815481106108e7576108e6612f9e565b5b90600052602060002090600602016004015411610c065760008260018361090e9190612f6a565b8154811061091f5761091e612f9e565b5b90600052602060002090600602016040518060e0016040529081600082015481526020016001820160009054906101000a900473ffffffffffffffffffffffffffffffffffffffff1673ffffffffffffffffffffffffffffffffffffffff1673ffffffffffffffffffffffffffffffffffffffff1681526020016001820160149054906101000a900460ff1660018111156109bd576109bc61299f565b5b60018111156109cf576109ce61299f565b5b81526020016002820154815260200160038201548152602001600482015481526020016005820154815250509050828281548110610a1057610a0f612f9e565b5b906000526020600020906006020183600184610a2c9190612f6a565b81548110610a3d57610a3c612f9e565b5b9060005260206000209060060201600082015481600001556001820160009054906101000a900473ffffffffffffffffffffffffffffffffffffffff168160010160006101000a81548173ffffffffffffffffffffffffffffffffffffffff021916908373ffffffffffffffffffffffffffffffffffffffff1602179055506001820160149054906101000a900460ff168160010160146101000a81548160ff02191690836001811115610af457610af361299f565b5b02179055506002820154816002015560038201548160030155600482015481600401556005820154816005015590505080838381548110610b3857610b37612f9e565b5b90600052602060002090600602016000820151816000015560208201518160010160006101000a81548173ffffffffffffffffffffffffffffffffffffffff021916908373ffffffffffffffffffffffffffffffffffffffff16021790555060408201518160010160146101000a81548160ff02191690836001811115610bc257610bc161299f565b5b0217905550606082015181600201556080820151816003015560a0820151816004015560c082015181600501559050508180610bfd90612fcd565b9250505061089a565b610fa5565b600180811115610c1e57610c1d61299f565b5b866001811115610c3157610c3061299f565b5b03610fa4575b6000811115610fa357818181548110610c5357610c52612f9e565b5b90600052602060002090600602016004015482600183610c739190612f6a565b81548110610c8457610c83612f9e565b5b90600052602060002090600602016004015410610fa357600082600183610cab9190612f6a565b81548110610cbc57610cbb612f9e565b5b90600052602060002090600602016040518060e0016040529081600082015481526020016001820160009054906101000a900473ffffffffffffffffffffffffffffffffffffffff1673ffffffffffffffffffffffffffffffffffffffff1673ffffffffffffffffffffffffffffffffffffffff1681526020016001820160149054906101000a900460ff166001811115610d5a57610d5961299f565b5b6001811115610d6c57610d6b61299f565b5b81526020016002820154815260200160038201548152602001600482015481526020016005820154815250509050828281548110610dad57610dac612f9e565b5b906000526020600020906006020183600184610dc99190612f6a565b81548110610dda57610dd9612f9e565b5b9060005260206000209060060201600082015481600001556001820160009054906101000a900473ffffffffffffffffffffffffffffffffffffffff168160010160006101000a81548173ffffffffffffffffffffffffffffffffffffffff021916908373ffffffffffffffffffffffffffffffffffffffff1602179055506001820160149054906101000a900460ff168160010160146101000a81548160ff02191690836001811115610e9157610e9061299f565b5b02179055506002820154816002015560038201548160030155600482015481600401556005820154816005015590505080838381548110610ed557610ed4612f9e565b5b90600052602060002090600602016000820151816000015560208201518160010160006101000a81548173ffffffffffffffffffffffffffffffffffffffff021916908373ffffffffffffffffffffffffffffffffffffffff16021790555060408201518160010160146101000a81548160ff02191690836001811115610f5f57610f5e61299f565b5b0217905550606082015181600201556080820151816003015560a0820151816004015560c082015181600501559050508180610f9a90612fcd565b92505050610c37565b5b5b60046000815480929190610fb890612ff6565b9190505550505050505050565b610fcd61272b565b610fd760006127a9565b565b60008060009054906101000a900473ffffffffffffffffffffffffffffffffffffffff16905090565b61100a61272b565b60405180604001604052808381526020018273ffffffffffffffffffffffffffffffffffffffff16815250600160008481526020019081526020016000206000820151816000015560208201518160010160006101000a81548173ffffffffffffffffffffffffffffffffffffffff021916908373ffffffffffffffffffffffffffffffffffffffff16021790555090505060028290806001815401808255809150506001900390600052602060002001600090919091909150555050565b6001808111156110dc576110db61299f565b5b8360018111156110ef576110ee61299f565b5b036111875780600360003373ffffffffffffffffffffffffffffffffffffffff1673ffffffffffffffffffffffffffffffffffffffff16815260200190815260200160002060008481526020019081526020016000205411611186576040517f08c379a000000000000000000000000000000000000000000000000000000000815260040161117d9061309b565b60405180910390fd5b5b600080600181111561119c5761119b61299f565b5b8460018111156111af576111ae61299f565b5b036111bd57600190506111c2565b600090505b600060056000858152602001908152602001600020600083815260200190815260200160002090506000805b82805490508110801561120057508482105b15611d0a57600061121a838761286d90919063ffffffff16565b9050600061127985848154811061123457611233612f9e565b5b90600052602060002090600602016005015486858154811061125957611258612f9e565b5b90600052602060002090600602016003015461286d90919063ffffffff16565b905060008282111561128d57829050611291565b8190505b6112a481866126ff90919063ffffffff16565b94506112dd818786815481106112bd576112bc612f9e565b5b9060005260206000209060060201600501546126ff90919063ffffffff16565b8685815481106112f0576112ef612f9e565b5b906000526020600020906006020160050181905550600061133e87868154811061131d5761131c612f9e565b5b9060005260206000209060060201600401548361271590919063ffffffff16565b9050600060018111156113545761135361299f565b5b8b60018111156113675761136661299f565b5b0361185a5780600360003373ffffffffffffffffffffffffffffffffffffffff1673ffffffffffffffffffffffffffffffffffffffff16815260200190815260200160002060007f455448000000000000000000000000000000000000000000000000000000000081526020019081526020016000205410156113e957600080fd5b61144c82600360003373ffffffffffffffffffffffffffffffffffffffff1673ffffffffffffffffffffffffffffffffffffffff16815260200190815260200160002060008d8152602001908152602001600020546126ff90919063ffffffff16565b600360003373ffffffffffffffffffffffffffffffffffffffff1673ffffffffffffffffffffffffffffffffffffffff16815260200190815260200160002060008c81526020019081526020016000208190555061152381600360003373ffffffffffffffffffffffffffffffffffffffff1673ffffffffffffffffffffffffffffffffffffffff16815260200190815260200160002060007f455448000000000000000000000000000000000000000000000000000000000081526020019081526020016000205461286d90919063ffffffff16565b600360003373ffffffffffffffffffffffffffffffffffffffff1673ffffffffffffffffffffffffffffffffffffffff16815260200190815260200160002060007f455448000000000000000000000000000000000000000000000000000000000081526020019081526020016000208190555061163e82600360008a89815481106115b2576115b1612f9e565b5b906000526020600020906006020160010160009054906101000a900473ffffffffffffffffffffffffffffffffffffffff1673ffffffffffffffffffffffffffffffffffffffff1673ffffffffffffffffffffffffffffffffffffffff16815260200190815260200160002060008d81526020019081526020016000205461286d90919063ffffffff16565b6003600089888154811061165557611654612f9e565b5b906000526020600020906006020160010160009054906101000a900473ffffffffffffffffffffffffffffffffffffffff1673ffffffffffffffffffffffffffffffffffffffff1673ffffffffffffffffffffffffffffffffffffffff16815260200190815260200160002060008c81526020019081526020016000208190555061179d81600360008a89815481106116f1576116f0612f9e565b5b906000526020600020906006020160010160009054906101000a900473ffffffffffffffffffffffffffffffffffffffff1673ffffffffffffffffffffffffffffffffffffffff1673ffffffffffffffffffffffffffffffffffffffff16815260200190815260200160002060007f45544800000000000000000000000000000000000000000000000000000000008152602001908152602001600020546126ff90919063ffffffff16565b600360008988815481106117b4576117b3612f9e565b5b906000526020600020906006020160010160009054906101000a900473ffffffffffffffffffffffffffffffffffffffff1673ffffffffffffffffffffffffffffffffffffffff1673ffffffffffffffffffffffffffffffffffffffff16815260200190815260200160002060007f4554480000000000000000000000000000000000000000000000000000000000815260200190815260200160002081905550611cf3565b60018081111561186d5761186c61299f565b5b8b60018111156118805761187f61299f565b5b03611cf2576118e882600360003373ffffffffffffffffffffffffffffffffffffffff1673ffffffffffffffffffffffffffffffffffffffff16815260200190815260200160002060008d81526020019081526020016000205461286d90919063ffffffff16565b600360003373ffffffffffffffffffffffffffffffffffffffff1673ffffffffffffffffffffffffffffffffffffffff16815260200190815260200160002060008c8152602001908152602001600020819055506119bf81600360003373ffffffffffffffffffffffffffffffffffffffff1673ffffffffffffffffffffffffffffffffffffffff16815260200190815260200160002060007f45544800000000000000000000000000000000000000000000000000000000008152602001908152602001600020546126ff90919063ffffffff16565b600360003373ffffffffffffffffffffffffffffffffffffffff1673ffffffffffffffffffffffffffffffffffffffff16815260200190815260200160002060007f4554480000000000000000000000000000000000000000000000000000000000815260200190815260200160002081905550611ada82600360008a8981548110611a4e57611a4d612f9e565b5b906000526020600020906006020160010160009054906101000a900473ffffffffffffffffffffffffffffffffffffffff1673ffffffffffffffffffffffffffffffffffffffff1673ffffffffffffffffffffffffffffffffffffffff16815260200190815260200160002060008d8152602001908152602001600020546126ff90919063ffffffff16565b60036000898881548110611af157611af0612f9e565b5b906000526020600020906006020160010160009054906101000a900473ffffffffffffffffffffffffffffffffffffffff1673ffffffffffffffffffffffffffffffffffffffff1673ffffffffffffffffffffffffffffffffffffffff16815260200190815260200160002060008c815260200190815260200160002081905550611c3981600360008a8981548110611b8d57611b8c612f9e565b5b906000526020600020906006020160010160009054906101000a900473ffffffffffffffffffffffffffffffffffffffff1673ffffffffffffffffffffffffffffffffffffffff1673ffffffffffffffffffffffffffffffffffffffff16815260200190815260200160002060007f455448000000000000000000000000000000000000000000000000000000000081526020019081526020016000205461286d90919063ffffffff16565b60036000898881548110611c5057611c4f612f9e565b5b906000526020600020906006020160010160009054906101000a900473ffffffffffffffffffffffffffffffffffffffff1673ffffffffffffffffffffffffffffffffffffffff1673ffffffffffffffffffffffffffffffffffffffff16815260200190815260200160002060007f45544800000000000000000000000000000000000000000000000000000000008152602001908152602001600020819055505b5b505050508080611d0290612ff6565b9150506111ee565b505b60008280549050118015611d69575081600081548110611d2f57611d2e612f9e565b5b90600052602060002090600602016003015482600081548110611d5557611d54612f9e565b5b906000526020600020906006020160050154145b15611f565760005b60018380549050611d829190612f6a565b811015611ec35782600182611d9791906130bb565b81548110611da857611da7612f9e565b5b9060005260206000209060060201838281548110611dc957611dc8612f9e565b5b9060005260206000209060060201600082015481600001556001820160009054906101000a900473ffffffffffffffffffffffffffffffffffffffff168160010160006101000a81548173ffffffffffffffffffffffffffffffffffffffff021916908373ffffffffffffffffffffffffffffffffffffffff1602179055506001820160149054906101000a900460ff168160010160146101000a81548160ff02191690836001811115611e8057611e7f61299f565b5b0217905550600282015481600201556003820154816003015560048201548160040155600582015481600501559050508080611ebb90612ff6565b915050611d71565b5081805480611ed557611ed4613111565b5b60019003818190600052602060002090600602016000808201600090556001820160006101000a81549073ffffffffffffffffffffffffffffffffffffffff02191690556001820160146101000a81549060ff0219169055600282016000905560038201600090556004820160009055600582016000905550509055611d0c565b505050505050565b60028181548110611f6e57600080fd5b906000526020600020016000915090505481565b80600073ffffffffffffffffffffffffffffffffffffffff166001600083815260200190815260200160002060010160009054906101000a900473ffffffffffffffffffffffffffffffffffffffff1673ffffffffffffffffffffffffffffffffffffffff1603612028576040517f08c379a000000000000000000000000000000000000000000000000000000000815260040161201f9061318c565b60405180910390fd5b600073ffffffffffffffffffffffffffffffffffffffff166001600084815260200190815260200160002060010160009054906101000a900473ffffffffffffffffffffffffffffffffffffffff1673ffffffffffffffffffffffffffffffffffffffff160361209757600080fd5b82600360003373ffffffffffffffffffffffffffffffffffffffff1673ffffffffffffffffffffffffffffffffffffffff168152602001908152602001600020600084815260200190815260200160002054101561212a576040517f08c379a0000000000000000000000000000000000000000000000000000000008152600401612121906131f8565b60405180910390fd5b61218d83600360003373ffffffffffffffffffffffffffffffffffffffff1673ffffffffffffffffffffffffffffffffffffffff16815260200190815260200160002060008581526020019081526020016000205461286d90919063ffffffff16565b600360003373ffffffffffffffffffffffffffffffffffffffff1673ffffffffffffffffffffffffffffffffffffffff1681526020019081526020016000206000848152602001908152602001600020819055506001600083815260200190815260200160002060010160009054906101000a900473ffffffffffffffffffffffffffffffffffffffff1673ffffffffffffffffffffffffffffffffffffffff1663a9059cbb33856040518363ffffffff1660e01b8152600401612252929190613218565b6020604051808303816000875af1158015612271573d6000803e3d6000fd5b505050506040513d601f19601f820116820180604052508101906122959190613279565b50505050565b60606005600084815260200190815260200160002060008360018111156122c5576122c461299f565b5b8152602001908152602001600020805480602002602001604051908101604052809291908181526020016000905b828210156123e857838290600052602060002090600602016040518060e0016040529081600082015481526020016001820160009054906101000a900473ffffffffffffffffffffffffffffffffffffffff1673ffffffffffffffffffffffffffffffffffffffff1673ffffffffffffffffffffffffffffffffffffffff1681526020016001820160149054906101000a900460ff16600181111561239b5761239a61299f565b5b60018111156123ad576123ac61299f565b5b8152602001600282015481526020016003820154815260200160048201548152602001600582015481525050815260200190600101906122f3565b50505050905092915050565b80600073ffffffffffffffffffffffffffffffffffffffff166001600083815260200190815260200160002060010160009054906101000a900473ffffffffffffffffffffffffffffffffffffffff1673ffffffffffffffffffffffffffffffffffffffff160361249a576040517f08c379a00000000000000000000000000000000000000000000000000000000081526004016124919061318c565b60405180910390fd5b600073ffffffffffffffffffffffffffffffffffffffff166001600084815260200190815260200160002060010160009054906101000a900473ffffffffffffffffffffffffffffffffffffffff1673ffffffffffffffffffffffffffffffffffffffff160361250957600080fd5b6001600083815260200190815260200160002060010160009054906101000a900473ffffffffffffffffffffffffffffffffffffffff1673ffffffffffffffffffffffffffffffffffffffff166323b872dd3330866040518463ffffffff1660e01b815260040161257c939291906132a6565b6020604051808303816000875af115801561259b573d6000803e3d6000fd5b505050506040513d601f19601f820116820180604052508101906125bf9190613279565b5061262383600360003373ffffffffffffffffffffffffffffffffffffffff1673ffffffffffffffffffffffffffffffffffffffff1681526020019081526020016000206000858152602001908152602001600020546126ff90919063ffffffff16565b600360003373ffffffffffffffffffffffffffffffffffffffff1673ffffffffffffffffffffffffffffffffffffffff168152602001908152602001600020600084815260200190815260200160002081905550505050565b61268461272b565b600073ffffffffffffffffffffffffffffffffffffffff168173ffffffffffffffffffffffffffffffffffffffff16036126f3576040517f08c379a00000000000000000000000000000000000000000000000000000000081526004016126ea9061334f565b60405180910390fd5b6126fc816127a9565b50565b6000818361270d91906130bb565b905092915050565b60008183612723919061336f565b905092915050565b612733612883565b73ffffffffffffffffffffffffffffffffffffffff16612751610fd9565b73ffffffffffffffffffffffffffffffffffffffff16146127a7576040517f08c379a000000000000000000000000000000000000000000000000000000000815260040161279e90613415565b60405180910390fd5b565b60008060009054906101000a900473ffffffffffffffffffffffffffffffffffffffff169050816000806101000a81548173ffffffffffffffffffffffffffffffffffffffff021916908373ffffffffffffffffffffffffffffffffffffffff1602179055508173ffffffffffffffffffffffffffffffffffffffff168173ffffffffffffffffffffffffffffffffffffffff167f8be0079c531659141344cd1fd0a4f28419497f9722a3daafe3b4186f6b6457e060405160405180910390a35050565b6000818361287b9190612f6a565b905092915050565b600033905090565b600080fd5b6000819050919050565b6128a381612890565b81146128ae57600080fd5b50565b6000813590506128c08161289a565b92915050565b6000819050919050565b6128d9816128c6565b81146128e457600080fd5b50565b6000813590506128f6816128d0565b92915050565b6000806000606084860312156129155761291461288b565b5b6000612923868287016128b1565b9350506020612934868287016128e7565b9250506040612945868287016128e7565b9150509250925092565b612958816128c6565b82525050565b600073ffffffffffffffffffffffffffffffffffffffff82169050919050565b60006129898261295e565b9050919050565b6129998161297e565b82525050565b7f4e487b7100000000000000000000000000000000000000000000000000000000600052602160045260246000fd5b600281106129df576129de61299f565b5b50565b60008190506129f0826129ce565b919050565b6000612a00826129e2565b9050919050565b612a10816129f5565b82525050565b612a1f81612890565b82525050565b600060e082019050612a3a600083018a61294f565b612a476020830189612990565b612a546040830188612a07565b612a616060830187612a16565b612a6e608083018661294f565b612a7b60a083018561294f565b612a8860c083018461294f565b98975050505050505050565b612a9d8161297e565b8114612aa857600080fd5b50565b600081359050612aba81612a94565b92915050565b60008060408385031215612ad757612ad661288b565b5b6000612ae585828601612aab565b9250506020612af6858286016128b1565b9150509250929050565b6000602082019050612b15600083018461294f565b92915050565b600060208284031215612b3157612b3061288b565b5b6000612b3f848285016128b1565b91505092915050565b6000604082019050612b5d6000830185612a16565b612b6a6020830184612990565b9392505050565b60028110612b7e57600080fd5b50565b600081359050612b9081612b71565b92915050565b60008060008060808587031215612bb057612baf61288b565b5b6000612bbe87828801612b81565b9450506020612bcf878288016128b1565b9350506040612be0878288016128e7565b9250506060612bf1878288016128e7565b91505092959194509250565b6000602082019050612c126000830184612990565b92915050565b60008060408385031215612c2f57612c2e61288b565b5b6000612c3d858286016128b1565b9250506020612c4e85828601612aab565b9150509250929050565b600080600060608486031215612c7157612c7061288b565b5b6000612c7f86828701612b81565b9350506020612c90868287016128b1565b9250506040612ca1868287016128e7565b9150509250925092565b600060208284031215612cc157612cc061288b565b5b6000612ccf848285016128e7565b91505092915050565b6000602082019050612ced6000830184612a16565b92915050565b60008060408385031215612d0a57612d0961288b565b5b6000612d18858286016128e7565b9250506020612d29858286016128b1565b9150509250929050565b60008060408385031215612d4a57612d4961288b565b5b6000612d58858286016128b1565b9250506020612d6985828601612b81565b9150509250929050565b600081519050919050565b600082825260208201905092915050565b6000819050602082019050919050565b612da8816128c6565b82525050565b612db78161297e565b82525050565b612dc6816129f5565b82525050565b612dd581612890565b82525050565b60e082016000820151612df16000850182612d9f565b506020820151612e046020850182612dae565b506040820151612e176040850182612dbd565b506060820151612e2a6060850182612dcc565b506080820151612e3d6080850182612d9f565b5060a0820151612e5060a0850182612d9f565b5060c0820151612e6360c0850182612d9f565b50505050565b6000612e758383612ddb565b60e08301905092915050565b6000602082019050919050565b6000612e9982612d73565b612ea38185612d7e565b9350612eae83612d8f565b8060005b83811015612edf578151612ec68882612e69565b9750612ed183612e81565b925050600181019050612eb2565b5085935050505092915050565b60006020820190508181036000830152612f068184612e8e565b905092915050565b600060208284031215612f2457612f2361288b565b5b6000612f3284828501612aab565b91505092915050565b7f4e487b7100000000000000000000000000000000000000000000000000000000600052601160045260246000fd5b6000612f75826128c6565b9150612f80836128c6565b925082821015612f9357612f92612f3b565b5b828203905092915050565b7f4e487b7100000000000000000000000000000000000000000000000000000000600052603260045260246000fd5b6000612fd8826128c6565b915060008203612feb57612fea612f3b565b5b600182039050919050565b6000613001826128c6565b91507fffffffffffffffffffffffffffffffffffffffffffffffffffffffffffffffff820361303357613032612f3b565b5b600182019050919050565b600082825260208201905092915050565b7f4e6f742073756666696369656e7420746f6b656e2062616c616e636500000000600082015250565b6000613085601c8361303e565b91506130908261304f565b602082019050919050565b600060208201905081810360008301526130b481613078565b9050919050565b60006130c6826128c6565b91506130d1836128c6565b9250827fffffffffffffffffffffffffffffffffffffffffffffffffffffffffffffffff0382111561310657613105612f3b565b5b828201905092915050565b7f4e487b7100000000000000000000000000000000000000000000000000000000600052603160045260246000fd5b7f546f6b656e20646f65736e277420657869737421000000000000000000000000600082015250565b600061317660148361303e565b915061318182613140565b602082019050919050565b600060208201905081810360008301526131a581613169565b9050919050565b7f42616c616e6365206e6f742073756666696369656e7400000000000000000000600082015250565b60006131e260168361303e565b91506131ed826131ac565b602082019050919050565b60006020820190508181036000830152613211816131d5565b9050919050565b600060408201905061322d6000830185612990565b61323a602083018461294f565b9392505050565b60008115159050919050565b61325681613241565b811461326157600080fd5b50565b6000815190506132738161324d565b92915050565b60006020828403121561328f5761328e61288b565b5b600061329d84828501613264565b91505092915050565b60006060820190506132bb6000830186612990565b6132c86020830185612990565b6132d5604083018461294f565b949350505050565b7f4f776e61626c653a206e6577206f776e657220697320746865207a65726f206160008201527f6464726573730000000000000000000000000000000000000000000000000000602082015250565b600061333960268361303e565b9150613344826132dd565b604082019050919050565b600060208201905081810360008301526133688161332c565b9050919050565b600061337a826128c6565b9150613385836128c6565b9250817fffffffffffffffffffffffffffffffffffffffffffffffffffffffffffffffff04831182151516156133be576133bd612f3b565b5b828202905092915050565b7f4f776e61626c653a2063616c6c6572206973206e6f7420746865206f776e6572600082015250565b60006133ff60208361303e565b915061340a826133c9565b602082019050919050565b6000602082019050818103600083015261342e816133f2565b905091905056fea2646970667358221220d74c039773e2b3d8e66062718ccb5f5bb529c3a597673b9ae3d524fa5409adf064736f6c634300080d0033",
  "immutableReferences": {},
  "source": "// SPDX-License-Identifier: MIT\r\n\r\npragma solidity ^0.8.13;\r\n//pragma experimental ABIEnconderV2;\r\n\r\nimport \"../contracts/wallet.sol\";\r\n\r\n\r\ncontract Dex is Wallet {\r\n\r\n    using SafeMath for uint256;\r\n\r\n    enum Side {\r\n        BUY,\r\n        SELL\r\n    }\r\n\r\n    struct Order {\r\n        uint id;\r\n        address trader;\r\n        Side side;\r\n        bytes32 ticker;\r\n        uint amount;\r\n        uint price;\r\n        uint filled;\r\n    }\r\n\r\n    uint public nextOrderId = 0;\r\n\r\n    mapping(bytes32 => mapping(uint => Order[])) public orderBook;\r\n\r\n    function getOrderBook(bytes32 ticker, Side side) view public returns(Order[] memory) {\r\n        return orderBook[ticker][uint(side)];\r\n    }\r\n\r\n    function createLimitOrder(Side side, bytes32 ticker, uint amount, uint price) public {\r\n        if(side == Side.BUY){\r\n            require(balances[msg.sender][\"ETH\"] >= amount.mul(price));\r\n        }\r\n\r\n        if(side == Side.SELL){\r\n            require(balances[msg.sender][ticker] >= amount);\r\n        }\r\n\r\n        Order[] storage orders = orderBook[ticker][uint(side)];\r\n        orders.push(\r\n            Order(nextOrderId, msg.sender, side, ticker, amount, price,0)\r\n        );\r\n\r\n        //Bubble sort\r\n        //In-line if statement em baixo \r\n        uint i = orders.length > 0 ? orders.length - 1 : 0;\r\n        if(side == Side.BUY){\r\n            while(i > 0){\r\n                if(orders[i - 1].price > orders[i].price){\r\n                    break;\r\n                }\r\n                Order memory orderToMove = orders[i - 1];\r\n                orders[i - 1] = orders[i];\r\n                orders[i] = orderToMove;\r\n                i--;\r\n            }\r\n        }\r\n        else if(side == Side.SELL){\r\n            while(i > 0){\r\n                if(orders[i - 1].price < orders[i].price) {\r\n                    break;   \r\n                }\r\n                Order memory orderToMove = orders[i - 1];\r\n                orders[i - 1] = orders[i];\r\n                orders[i] = orderToMove;\r\n                i--;\r\n            }\r\n        }\r\n        nextOrderId++;\r\n    }\r\n\r\n    function createMarketOrder(Side side, bytes32 ticker, uint amount) public {\r\n        if (side == Side.SELL){\r\n            require(balances[msg.sender][ticker] > amount, \"Not sufficient token balance\");\r\n        }\r\n\r\n        uint orderBookSide;\r\n\r\n        if (side == Side.BUY){\r\n            orderBookSide = 1;\r\n        }\r\n        \r\n        else {\r\n            orderBookSide = 0;\r\n        }\r\n\r\n        Order[] storage orders = orderBook[ticker][orderBookSide];\r\n\r\n        uint totalFilled = 0;\r\n\r\n        for (uint256 i = 0; i < orders.length && totalFilled < amount; i++) {\r\n            uint leftToFill = amount.sub(totalFilled);\r\n            uint availableToFill = orders[i].amount.sub(orders[i].filled);\r\n            uint filled = 0;\r\n            if (availableToFill > leftToFill) {\r\n                filled = leftToFill; //Exitem fundos suficientes no orderbook para preencher o tamanho da ordem\r\n            }\r\n\r\n            else {\r\n                filled = availableToFill; //No existe fundos suficientes para preencher o tamanho da ordem em order[i]\r\n            }\r\n\r\n            totalFilled = totalFilled.add(filled);\r\n            orders[i].filled = orders[i].filled.add(filled);\r\n            uint cost = filled.mul(orders[i].price);\r\n        \r\n            if(side == Side.BUY){\r\n                //Verify that the buyer has enough ETH to cover the purchase (require)\r\n                require(balances[msg.sender][\"ETH\"] >= cost);\r\n                //msg.sender is the buyer\r\n                balances[msg.sender][ticker] = balances[msg.sender][ticker].add(filled);\r\n                balances[msg.sender][\"ETH\"] = balances[msg.sender][\"ETH\"].sub(cost);\r\n                \r\n                balances[orders[i].trader][ticker] = balances[orders[i].trader][ticker].sub(filled);\r\n                balances[orders[i].trader][\"ETH\"] = balances[orders[i].trader][\"ETH\"].add(cost);\r\n            }\r\n            else if(side == Side.SELL){\r\n                //Msg.sender is the seller\r\n                balances[msg.sender][ticker] = balances[msg.sender][ticker].sub(filled);\r\n                balances[msg.sender][\"ETH\"] = balances[msg.sender][\"ETH\"].add(cost);\r\n                \r\n                balances[orders[i].trader][ticker] = balances[orders[i].trader][ticker].add(filled);\r\n                balances[orders[i].trader][\"ETH\"] = balances[orders[i].trader][\"ETH\"].sub(cost);\r\n            }\r\n            \r\n        }\r\n            //Remove 100% filled orders from the orderbook\r\n        while(orders.length > 0 && orders[0].filled == orders[0].amount){\r\n            //Remove the top element in the orders array by overwriting every element\r\n            // with the next element in the order list\r\n            for (uint256 i = 0; i < orders.length - 1; i++) {\r\n                orders[i] = orders[i + 1];\r\n            }\r\n            orders.pop();\r\n        }\r\n        \r\n    }\r\n}",
  "sourcePath": "C:\\Users\\nunoa\\OneDrive\\Ambiente de Trabalho\\Moralis Academy\\Ethereum-201\\DEX\\contracts\\dex.sol",
  "compiler": {
    "name": "solc",
    "version": "0.8.13+commit.abaa5c0e.Emscripten.clang"
  },
  "schemaVersion": "3.4.11",
  "updatedAt": "2023-03-16T09:09:44.209Z",
  "devdoc": {
    "kind": "dev",
    "methods": {
      "owner()": {
        "details": "Returns the address of the current owner."
      },
      "renounceOwnership()": {
        "details": "Leaves the contract without owner. It will not be possible to call `onlyOwner` functions anymore. Can only be called by the current owner. NOTE: Renouncing ownership will leave the contract without an owner, thereby removing any functionality that is only available to the owner."
      },
      "transferOwnership(address)": {
        "details": "Transfers ownership of the contract to a new account (`newOwner`). Can only be called by the current owner."
      }
    },
    "version": 1
  },
  "userdoc": {
    "kind": "user",
    "methods": {},
    "version": 1
  }
}